{
  "_format": "hh-sol-artifact-1",
  "contractName": "FunToken",
  "sourceName": "contracts/FunToken.sol",
  "abi": [
    {
      "inputs": [
        {
          "internalType": "uint256",
          "name": "updateInterval",
          "type": "uint256"
        }
      ],
      "stateMutability": "nonpayable",
      "type": "constructor"
    },
    {
      "anonymous": false,
      "inputs": [
        {
          "indexed": true,
          "internalType": "address",
          "name": "from",
          "type": "address"
        },
        {
          "indexed": true,
          "internalType": "address",
          "name": "to",
          "type": "address"
        },
        {
          "indexed": false,
          "internalType": "uint256",
          "name": "value",
          "type": "uint256"
        }
      ],
      "name": "Transfer",
      "type": "event"
    },
    {
      "inputs": [
        {
          "internalType": "uint256",
          "name": "",
          "type": "uint256"
        }
      ],
      "name": "AssetOwners",
      "outputs": [
        {
          "internalType": "address",
          "name": "",
          "type": "address"
        }
      ],
      "stateMutability": "view",
      "type": "function"
    },
    {
      "inputs": [
        {
          "internalType": "address",
          "name": "",
          "type": "address"
        }
      ],
      "name": "Assets",
      "outputs": [
        {
          "internalType": "uint256",
          "name": "",
          "type": "uint256"
        }
      ],
      "stateMutability": "view",
      "type": "function"
    },
    {
      "inputs": [],
      "name": "DECIMALS",
      "outputs": [
        {
          "internalType": "uint256",
          "name": "",
          "type": "uint256"
        }
      ],
      "stateMutability": "view",
      "type": "function"
    },
    {
      "inputs": [
        {
          "internalType": "address",
          "name": "",
          "type": "address"
        }
      ],
      "name": "OwnsAsset",
      "outputs": [
        {
          "internalType": "bool",
          "name": "",
          "type": "bool"
        }
      ],
      "stateMutability": "view",
      "type": "function"
    },
    {
      "inputs": [
        {
          "internalType": "address",
          "name": "",
          "type": "address"
        }
      ],
      "name": "Rewards",
      "outputs": [
        {
          "internalType": "uint256",
          "name": "",
          "type": "uint256"
        }
      ],
      "stateMutability": "view",
      "type": "function"
    },
    {
      "inputs": [
        {
          "internalType": "address",
          "name": "",
          "type": "address"
        }
      ],
      "name": "balanceOf",
      "outputs": [
        {
          "internalType": "uint256",
          "name": "",
          "type": "uint256"
        }
      ],
      "stateMutability": "view",
      "type": "function"
    },
    {
      "inputs": [
        {
          "internalType": "bytes",
          "name": "",
          "type": "bytes"
        }
      ],
      "name": "checkUpkeep",
      "outputs": [
        {
          "internalType": "bool",
          "name": "upkeepNeeded",
          "type": "bool"
        },
        {
          "internalType": "bytes",
          "name": "",
          "type": "bytes"
        }
      ],
      "stateMutability": "view",
      "type": "function"
    },
    {
      "inputs": [],
      "name": "claimReward",
      "outputs": [
        {
          "internalType": "bool",
          "name": "",
          "type": "bool"
        }
      ],
      "stateMutability": "nonpayable",
      "type": "function"
    },
    {
      "inputs": [],
      "name": "decimals",
      "outputs": [
        {
          "internalType": "uint8",
          "name": "",
          "type": "uint8"
        }
      ],
      "stateMutability": "view",
      "type": "function"
    },
    {
      "inputs": [
        {
          "internalType": "uint256",
          "name": "_value",
          "type": "uint256"
        }
      ],
      "name": "deposit",
      "outputs": [],
      "stateMutability": "payable",
      "type": "function"
    },
    {
      "inputs": [],
      "name": "depositCount",
      "outputs": [
        {
          "internalType": "uint256",
          "name": "",
          "type": "uint256"
        }
      ],
      "stateMutability": "view",
      "type": "function"
    },
    {
      "inputs": [],
      "name": "distributeRewards",
      "outputs": [],
      "stateMutability": "nonpayable",
      "type": "function"
    },
    {
      "inputs": [],
      "name": "interval",
      "outputs": [
        {
          "internalType": "uint256",
          "name": "",
          "type": "uint256"
        }
      ],
      "stateMutability": "view",
      "type": "function"
    },
    {
      "inputs": [],
      "name": "lastTimeStamp",
      "outputs": [
        {
          "internalType": "uint256",
          "name": "",
          "type": "uint256"
        }
      ],
      "stateMutability": "view",
      "type": "function"
    },
    {
      "inputs": [],
      "name": "name",
      "outputs": [
        {
          "internalType": "string",
          "name": "",
          "type": "string"
        }
      ],
      "stateMutability": "view",
      "type": "function"
    },
    {
      "inputs": [
        {
          "internalType": "bytes",
          "name": "",
          "type": "bytes"
        }
      ],
      "name": "performUpkeep",
      "outputs": [],
      "stateMutability": "nonpayable",
      "type": "function"
    },
    {
      "inputs": [],
      "name": "rewardDistribution",
      "outputs": [
        {
          "internalType": "uint256",
          "name": "",
          "type": "uint256"
        }
      ],
      "stateMutability": "view",
      "type": "function"
    },
    {
      "inputs": [],
      "name": "symbol",
      "outputs": [
        {
          "internalType": "string",
          "name": "",
          "type": "string"
        }
      ],
      "stateMutability": "view",
      "type": "function"
    },
    {
      "inputs": [],
      "name": "totalSupply",
      "outputs": [
        {
          "internalType": "uint256",
          "name": "",
          "type": "uint256"
        }
      ],
      "stateMutability": "view",
      "type": "function"
    },
    {
      "inputs": [
        {
          "internalType": "address",
          "name": "_to",
          "type": "address"
        },
        {
          "internalType": "uint256",
          "name": "_value",
          "type": "uint256"
        }
      ],
      "name": "transfer",
      "outputs": [
        {
          "internalType": "bool",
          "name": "",
          "type": "bool"
        }
      ],
      "stateMutability": "nonpayable",
      "type": "function"
    }
  ],
  "bytecode": "0x60a06040526040518060400160405280600881526020017f4e657874436f696e000000000000000000000000000000000000000000000000815250600090816200004a91906200040b565b506040518060400160405280600381526020017f4e58540000000000000000000000000000000000000000000000000000000000815250600190816200009191906200040b565b506012600260006101000a81548160ff021916908360ff160217905550600260009054906101000a900460ff16600a620000cc919062000682565b600355600354620f4240620000e29190620006d3565b600455600354612710620000f79190620006d3565b6005553480156200010757600080fd5b50604051620022db380380620022db83398181016040528101906200012d919062000754565b806080818152505042600c819055506000600681905550600454600760003373ffffffffffffffffffffffffffffffffffffffff1673ffffffffffffffffffffffffffffffffffffffff168152602001908152602001600020819055505062000786565b600081519050919050565b7f4e487b7100000000000000000000000000000000000000000000000000000000600052604160045260246000fd5b7f4e487b7100000000000000000000000000000000000000000000000000000000600052602260045260246000fd5b600060028204905060018216806200021357607f821691505b602082108103620002295762000228620001cb565b5b50919050565b60008190508160005260206000209050919050565b60006020601f8301049050919050565b600082821b905092915050565b600060088302620002937fffffffffffffffffffffffffffffffffffffffffffffffffffffffffffffffff8262000254565b6200029f868362000254565b95508019841693508086168417925050509392505050565b6000819050919050565b6000819050919050565b6000620002ec620002e6620002e084620002b7565b620002c1565b620002b7565b9050919050565b6000819050919050565b6200030883620002cb565b620003206200031782620002f3565b84845462000261565b825550505050565b600090565b6200033762000328565b62000344818484620002fd565b505050565b5b818110156200036c57620003606000826200032d565b6001810190506200034a565b5050565b601f821115620003bb5762000385816200022f565b620003908462000244565b81016020851015620003a0578190505b620003b8620003af8562000244565b83018262000349565b50505b505050565b600082821c905092915050565b6000620003e060001984600802620003c0565b1980831691505092915050565b6000620003fb8383620003cd565b9150826002028217905092915050565b620004168262000191565b67ffffffffffffffff8111156200043257620004316200019c565b5b6200043e8254620001fa565b6200044b82828562000370565b600060209050601f8311600181146200048357600084156200046e578287015190505b6200047a8582620003ed565b865550620004ea565b601f19841662000493866200022f565b60005b82811015620004bd5784890151825560018201915060208501945060208101905062000496565b86831015620004dd5784890151620004d9601f891682620003cd565b8355505b6001600288020188555050505b505050505050565b7f4e487b7100000000000000000000000000000000000000000000000000000000600052601160045260246000fd5b60008160011c9050919050565b6000808291508390505b60018511156200058057808604811115620005585762000557620004f2565b5b6001851615620005685780820291505b8081029050620005788562000521565b945062000538565b94509492505050565b6000826200059b57600190506200066e565b81620005ab57600090506200066e565b8160018114620005c45760028114620005cf5762000605565b60019150506200066e565b60ff841115620005e457620005e3620004f2565b5b8360020a915084821115620005fe57620005fd620004f2565b5b506200066e565b5060208310610133831016604e8410600b84101617156200063f5782820a905083811115620006395762000638620004f2565b5b6200066e565b6200064e84848460016200052e565b92509050818404811115620006685762000667620004f2565b5b81810290505b9392505050565b600060ff82169050919050565b60006200068f82620002b7565b91506200069c8362000675565b9250620006cb7fffffffffffffffffffffffffffffffffffffffffffffffffffffffffffffffff848462000589565b905092915050565b6000620006e082620002b7565b9150620006ed83620002b7565b9250828202620006fd81620002b7565b91508282048414831517620007175762000716620004f2565b5b5092915050565b600080fd5b6200072e81620002b7565b81146200073a57600080fd5b50565b6000815190506200074e8162000723565b92915050565b6000602082840312156200076d576200076c6200071e565b5b60006200077d848285016200073d565b91505092915050565b608051611b2b620007b0600039600081816105b30152818161065f01526109e90152611b2b6000f3fe60806040526004361061011f5760003560e01c80636b9e0284116100a057806395d89b411161006457806395d89b41146103ee578063a9059cbb14610419578063b6b55f2514610456578063b88a802f14610472578063fb5307941461049d5761011f565b80636b9e0284146102f45780636e04ff0d146103315780636f4a2cd01461036f57806370a0823114610386578063947a36fb146103c35761011f565b80632e0f2625116100e75780632e0f26251461020d578063313ce567146102385780633f3b3b27146102635780634585e33b1461028e5780634de7f739146102b75761011f565b806306fdde0314610124578063101114cf1461014f57806318160ddd1461017a578063237634c8146101a55780632dfdf0b5146101e2575b600080fd5b34801561013057600080fd5b506101396104da565b60405161014691906113c9565b60405180910390f35b34801561015b57600080fd5b50610164610568565b6040516101719190611404565b60405180910390f35b34801561018657600080fd5b5061018f61056e565b60405161019c9190611404565b60405180910390f35b3480156101b157600080fd5b506101cc60048036038101906101c79190611487565b610574565b6040516101d99190611404565b60405180910390f35b3480156101ee57600080fd5b506101f761058c565b6040516102049190611404565b60405180910390f35b34801561021957600080fd5b50610222610592565b60405161022f9190611404565b60405180910390f35b34801561024457600080fd5b5061024d610598565b60405161025a91906114d0565b60405180910390f35b34801561026f57600080fd5b506102786105ab565b6040516102859190611404565b60405180910390f35b34801561029a57600080fd5b506102b560048036038101906102b09190611550565b6105b1565b005b3480156102c357600080fd5b506102de60048036038101906102d99190611487565b6105fa565b6040516102eb91906115b8565b60405180910390f35b34801561030057600080fd5b5061031b600480360381019061031691906115ff565b61061a565b604051610328919061163b565b60405180910390f35b34801561033d57600080fd5b5061035860048036038101906103539190611550565b610659565b6040516103669291906116ab565b60405180910390f35b34801561037b57600080fd5b50610384610696565b005b34801561039257600080fd5b506103ad60048036038101906103a89190611487565b6109cf565b6040516103ba9190611404565b60405180910390f35b3480156103cf57600080fd5b506103d86109e7565b6040516103e59190611404565b60405180910390f35b3480156103fa57600080fd5b50610403610a0b565b60405161041091906113c9565b60405180910390f35b34801561042557600080fd5b50610440600480360381019061043b91906116db565b610a99565b60405161044d91906115b8565b60405180910390f35b610470600480360381019061046b91906115ff565b610cb6565b005b34801561047e57600080fd5b50610487611001565b60405161049491906115b8565b60405180910390f35b3480156104a957600080fd5b506104c460048036038101906104bf9190611487565b6112ce565b6040516104d19190611404565b60405180910390f35b600080546104e79061174a565b80601f01602080910402602001604051908101604052809291908181526020018280546105139061174a565b80156105605780601f1061053557610100808354040283529160200191610560565b820191906000526020600020905b81548152906001019060200180831161054357829003601f168201915b505050505081565b60055481565b60045481565b60096020528060005260406000206000915090505481565b60065481565b60035481565b600260009054906101000a900460ff1681565b600c5481565b7f0000000000000000000000000000000000000000000000000000000000000000600c54426105e091906117aa565b11156105f65742600c819055506105f5610696565b5b5050565b600a6020528060005260406000206000915054906101000a900460ff1681565b600b818154811061062a57600080fd5b906000526020600020016000915054906101000a900473ffffffffffffffffffffffffffffffffffffffff1681565b600060607f0000000000000000000000000000000000000000000000000000000000000000600c544261068c91906117aa565b1191509250929050565b60005b600b805490508110156109cc57600060086000600b84815481106106c0576106bf6117de565b5b9060005260206000200160009054906101000a900473ffffffffffffffffffffffffffffffffffffffff1673ffffffffffffffffffffffffffffffffffffffff1673ffffffffffffffffffffffffffffffffffffffff16815260200190815260200160002054600a6001600354610737919061180d565b610741919061187e565b61074b919061180d565b9050806005541161088c576107e860055460096000600b8681548110610774576107736117de565b5b9060005260206000200160009054906101000a900473ffffffffffffffffffffffffffffffffffffffff1673ffffffffffffffffffffffffffffffffffffffff1673ffffffffffffffffffffffffffffffffffffffff168152602001908152602001600020546112e690919063ffffffff16565b60096000600b8581548110610800576107ff6117de565b5b9060005260206000200160009054906101000a900473ffffffffffffffffffffffffffffffffffffffff1673ffffffffffffffffffffffffffffffffffffffff1673ffffffffffffffffffffffffffffffffffffffff1681526020019081526020016000208190555061088060055460055461131290919063ffffffff16565b600581905550506109cc565b61091c8160096000600b86815481106108a8576108a76117de565b5b9060005260206000200160009054906101000a900473ffffffffffffffffffffffffffffffffffffffff1673ffffffffffffffffffffffffffffffffffffffff1673ffffffffffffffffffffffffffffffffffffffff168152602001908152602001600020546112e690919063ffffffff16565b60096000600b8581548110610934576109336117de565b5b9060005260206000200160009054906101000a900473ffffffffffffffffffffffffffffffffffffffff1673ffffffffffffffffffffffffffffffffffffffff1673ffffffffffffffffffffffffffffffffffffffff168152602001908152602001600020819055506109b28160055461131290919063ffffffff16565b6005819055505080806109c4906118af565b915050610699565b50565b60076020528060005260406000206000915090505481565b7f000000000000000000000000000000000000000000000000000000000000000081565b60018054610a189061174a565b80601f0160208091040260200160405190810160405280929190818152602001828054610a449061174a565b8015610a915780601f10610a6657610100808354040283529160200191610a91565b820191906000526020600020905b815481529060010190602001808311610a7457829003601f168201915b505050505081565b6000600760003373ffffffffffffffffffffffffffffffffffffffff1673ffffffffffffffffffffffffffffffffffffffff16815260200190815260200160002054821115610b1d576040517f08c379a0000000000000000000000000000000000000000000000000000000008152600401610b1490611943565b60405180910390fd5b610b6f82600760003373ffffffffffffffffffffffffffffffffffffffff1673ffffffffffffffffffffffffffffffffffffffff1681526020019081526020016000205461131290919063ffffffff16565b600760003373ffffffffffffffffffffffffffffffffffffffff1673ffffffffffffffffffffffffffffffffffffffff16815260200190815260200160002081905550610c0482600760008673ffffffffffffffffffffffffffffffffffffffff1673ffffffffffffffffffffffffffffffffffffffff168152602001908152602001600020546112e690919063ffffffff16565b600760008573ffffffffffffffffffffffffffffffffffffffff1673ffffffffffffffffffffffffffffffffffffffff168152602001908152602001600020819055508273ffffffffffffffffffffffffffffffffffffffff163373ffffffffffffffffffffffffffffffffffffffff167fddf252ad1be2c89b69c2b068fc378daa952ba7f163c4a11628f55a4df523b3ef84604051610ca49190611404565b60405180910390a36001905092915050565b6000600354600a610cc7919061180d565b905060008183610cd79190611963565b14610d17576040517f08c379a0000000000000000000000000000000000000000000000000000000008152600401610d0e90611a06565b60405180910390fd5b81600760003373ffffffffffffffffffffffffffffffffffffffff1673ffffffffffffffffffffffffffffffffffffffff168152602001908152602001600020541015610d99576040517f08c379a0000000000000000000000000000000000000000000000000000000008152600401610d9090611a72565b60405180910390fd5b610deb82600760003373ffffffffffffffffffffffffffffffffffffffff1673ffffffffffffffffffffffffffffffffffffffff1681526020019081526020016000205461131290919063ffffffff16565b600760003373ffffffffffffffffffffffffffffffffffffffff1673ffffffffffffffffffffffffffffffffffffffff16815260200190815260200160002081905550610e43826006546112e690919063ffffffff16565b600681905550610ea68183610e58919061187e565b600860003373ffffffffffffffffffffffffffffffffffffffff1673ffffffffffffffffffffffffffffffffffffffff168152602001908152602001600020546112e690919063ffffffff16565b600860003373ffffffffffffffffffffffffffffffffffffffff1673ffffffffffffffffffffffffffffffffffffffff1681526020019081526020016000208190555060011515600a60003373ffffffffffffffffffffffffffffffffffffffff1673ffffffffffffffffffffffffffffffffffffffff16815260200190815260200160002060009054906101000a900460ff16151514610ffd57600b339080600181540180825580915050600190039060005260206000200160009091909190916101000a81548173ffffffffffffffffffffffffffffffffffffffff021916908373ffffffffffffffffffffffffffffffffffffffff1602179055506001600a60003373ffffffffffffffffffffffffffffffffffffffff1673ffffffffffffffffffffffffffffffffffffffff16815260200190815260200160002060006101000a81548160ff0219169083151502179055505b5050565b6000611094600960003373ffffffffffffffffffffffffffffffffffffffff1673ffffffffffffffffffffffffffffffffffffffff16815260200190815260200160002054600760003373ffffffffffffffffffffffffffffffffffffffff1673ffffffffffffffffffffffffffffffffffffffff168152602001908152602001600020546112e690919063ffffffff16565b600760003373ffffffffffffffffffffffffffffffffffffffff1673ffffffffffffffffffffffffffffffffffffffff168152602001908152602001600020819055506000600960003373ffffffffffffffffffffffffffffffffffffffff1673ffffffffffffffffffffffffffffffffffffffff168152602001908152602001600020819055506000600354600a600860003373ffffffffffffffffffffffffffffffffffffffff1673ffffffffffffffffffffffffffffffffffffffff1681526020019081526020016000205461116d919061180d565b611177919061180d565b905061118e8160065461131290919063ffffffff16565b6006819055506111e681600760003373ffffffffffffffffffffffffffffffffffffffff1673ffffffffffffffffffffffffffffffffffffffff168152602001908152602001600020546112e690919063ffffffff16565b600760003373ffffffffffffffffffffffffffffffffffffffff1673ffffffffffffffffffffffffffffffffffffffff168152602001908152602001600020819055506000600860003373ffffffffffffffffffffffffffffffffffffffff1673ffffffffffffffffffffffffffffffffffffffff168152602001908152602001600020819055506000600a60003373ffffffffffffffffffffffffffffffffffffffff1673ffffffffffffffffffffffffffffffffffffffff16815260200190815260200160002060006101000a81548160ff021916908315150217905550600191505090565b60086020528060005260406000206000915090505481565b60008082846112f59190611a92565b90508381101561130857611307611ac6565b5b8091505092915050565b60008282111561132557611324611ac6565b5b818361133191906117aa565b905092915050565b600081519050919050565b600082825260208201905092915050565b60005b83811015611373578082015181840152602081019050611358565b60008484015250505050565b6000601f19601f8301169050919050565b600061139b82611339565b6113a58185611344565b93506113b5818560208601611355565b6113be8161137f565b840191505092915050565b600060208201905081810360008301526113e38184611390565b905092915050565b6000819050919050565b6113fe816113eb565b82525050565b600060208201905061141960008301846113f5565b92915050565b600080fd5b600080fd5b600073ffffffffffffffffffffffffffffffffffffffff82169050919050565b600061145482611429565b9050919050565b61146481611449565b811461146f57600080fd5b50565b6000813590506114818161145b565b92915050565b60006020828403121561149d5761149c61141f565b5b60006114ab84828501611472565b91505092915050565b600060ff82169050919050565b6114ca816114b4565b82525050565b60006020820190506114e560008301846114c1565b92915050565b600080fd5b600080fd5b600080fd5b60008083601f8401126115105761150f6114eb565b5b8235905067ffffffffffffffff81111561152d5761152c6114f0565b5b602083019150836001820283011115611549576115486114f5565b5b9250929050565b600080602083850312156115675761156661141f565b5b600083013567ffffffffffffffff81111561158557611584611424565b5b611591858286016114fa565b92509250509250929050565b60008115159050919050565b6115b28161159d565b82525050565b60006020820190506115cd60008301846115a9565b92915050565b6115dc816113eb565b81146115e757600080fd5b50565b6000813590506115f9816115d3565b92915050565b6000602082840312156116155761161461141f565b5b6000611623848285016115ea565b91505092915050565b61163581611449565b82525050565b6000602082019050611650600083018461162c565b92915050565b600081519050919050565b600082825260208201905092915050565b600061167d82611656565b6116878185611661565b9350611697818560208601611355565b6116a08161137f565b840191505092915050565b60006040820190506116c060008301856115a9565b81810360208301526116d28184611672565b90509392505050565b600080604083850312156116f2576116f161141f565b5b600061170085828601611472565b9250506020611711858286016115ea565b9150509250929050565b7f4e487b7100000000000000000000000000000000000000000000000000000000600052602260045260246000fd5b6000600282049050600182168061176257607f821691505b6020821081036117755761177461171b565b5b50919050565b7f4e487b7100000000000000000000000000000000000000000000000000000000600052601160045260246000fd5b60006117b5826113eb565b91506117c0836113eb565b92508282039050818111156117d8576117d761177b565b5b92915050565b7f4e487b7100000000000000000000000000000000000000000000000000000000600052603260045260246000fd5b6000611818826113eb565b9150611823836113eb565b9250828202611831816113eb565b915082820484148315176118485761184761177b565b5b5092915050565b7f4e487b7100000000000000000000000000000000000000000000000000000000600052601260045260246000fd5b6000611889826113eb565b9150611894836113eb565b9250826118a4576118a361184f565b5b828204905092915050565b60006118ba826113eb565b91507fffffffffffffffffffffffffffffffffffffffffffffffffffffffffffffffff82036118ec576118eb61177b565b5b600182019050919050565b7f496e73756666696369656e742062616c616e6365000000000000000000000000600082015250565b600061192d601483611344565b9150611938826118f7565b602082019050919050565b6000602082019050818103600083015261195c81611920565b9050919050565b600061196e826113eb565b9150611979836113eb565b9250826119895761198861184f565b5b828206905092915050565b7f4465706f736974206d75737420626520696e206d756c7469706c6573206f662060008201527f3130000000000000000000000000000000000000000000000000000000000000602082015250565b60006119f0602283611344565b91506119fb82611994565b604082019050919050565b60006020820190508181036000830152611a1f816119e3565b9050919050565b7f4e6f7420656e6f75676820746f6b656e2070726f766964656400000000000000600082015250565b6000611a5c601983611344565b9150611a6782611a26565b602082019050919050565b60006020820190508181036000830152611a8b81611a4f565b9050919050565b6000611a9d826113eb565b9150611aa8836113eb565b9250828201905080821115611ac057611abf61177b565b5b92915050565b7f4e487b7100000000000000000000000000000000000000000000000000000000600052600160045260246000fdfea264697066735822122023d33422486f71e93bd9f95ea9758c5c512b690a8a261eecd049bb58c94ec5fb64736f6c63430008110033",
  "linkReferences": {},
  "deployedLinkReferences": {}
}