{
  "_format": "hh-sol-artifact-1",
  "contractName": "FunToken",
  "sourceName": "contracts/FunToken.sol",
  "abi": [
    {
      "inputs": [],
      "stateMutability": "nonpayable",
      "type": "constructor"
    },
    {
      "inputs": [
        {
          "internalType": "uint256",
          "name": "",
          "type": "uint256"
        }
      ],
      "name": "AssetOwners",
      "outputs": [
        {
          "internalType": "address",
          "name": "",
          "type": "address"
        }
      ],
      "stateMutability": "view",
      "type": "function"
    },
    {
      "inputs": [
        {
          "internalType": "address",
          "name": "",
          "type": "address"
        }
      ],
      "name": "Assets",
      "outputs": [
        {
          "internalType": "uint256",
          "name": "",
          "type": "uint256"
        }
      ],
      "stateMutability": "view",
      "type": "function"
    },
    {
      "inputs": [],
      "name": "DECIMALS",
      "outputs": [
        {
          "internalType": "uint256",
          "name": "",
          "type": "uint256"
        }
      ],
      "stateMutability": "view",
      "type": "function"
    },
    {
      "inputs": [
        {
          "internalType": "address",
          "name": "",
          "type": "address"
        }
      ],
      "name": "Rewards",
      "outputs": [
        {
          "internalType": "uint256",
          "name": "",
          "type": "uint256"
        }
      ],
      "stateMutability": "view",
      "type": "function"
    },
    {
      "inputs": [
        {
          "internalType": "address",
          "name": "",
          "type": "address"
        }
      ],
      "name": "balanceOf",
      "outputs": [
        {
          "internalType": "uint256",
          "name": "",
          "type": "uint256"
        }
      ],
      "stateMutability": "view",
      "type": "function"
    },
    {
      "inputs": [],
      "name": "claimReward",
      "outputs": [],
      "stateMutability": "nonpayable",
      "type": "function"
    },
    {
      "inputs": [],
      "name": "decimals",
      "outputs": [
        {
          "internalType": "uint8",
          "name": "",
          "type": "uint8"
        }
      ],
      "stateMutability": "view",
      "type": "function"
    },
    {
      "inputs": [
        {
          "internalType": "uint256",
          "name": "_value",
          "type": "uint256"
        }
      ],
      "name": "deposit",
      "outputs": [],
      "stateMutability": "payable",
      "type": "function"
    },
    {
      "inputs": [],
      "name": "depositCount",
      "outputs": [
        {
          "internalType": "uint256",
          "name": "",
          "type": "uint256"
        }
      ],
      "stateMutability": "view",
      "type": "function"
    },
    {
      "inputs": [],
      "name": "distributeRewards",
      "outputs": [],
      "stateMutability": "nonpayable",
      "type": "function"
    },
    {
      "inputs": [],
      "name": "name",
      "outputs": [
        {
          "internalType": "string",
          "name": "",
          "type": "string"
        }
      ],
      "stateMutability": "view",
      "type": "function"
    },
    {
      "inputs": [],
      "name": "rewardDistribution",
      "outputs": [
        {
          "internalType": "uint256",
          "name": "",
          "type": "uint256"
        }
      ],
      "stateMutability": "view",
      "type": "function"
    },
    {
      "inputs": [],
      "name": "symbol",
      "outputs": [
        {
          "internalType": "string",
          "name": "",
          "type": "string"
        }
      ],
      "stateMutability": "view",
      "type": "function"
    },
    {
      "inputs": [],
      "name": "totalSupply",
      "outputs": [
        {
          "internalType": "uint256",
          "name": "",
          "type": "uint256"
        }
      ],
      "stateMutability": "view",
      "type": "function"
    },
    {
      "inputs": [
        {
          "internalType": "address",
          "name": "_to",
          "type": "address"
        },
        {
          "internalType": "uint256",
          "name": "_value",
          "type": "uint256"
        }
      ],
      "name": "transfer",
      "outputs": [],
      "stateMutability": "nonpayable",
      "type": "function"
    }
  ],
  "bytecode": "0x60806040526040518060400160405280600881526020017f4e657874436f696e000000000000000000000000000000000000000000000000815250600090816200004a919062000416565b506040518060400160405280600381526020017f4e585400000000000000000000000000000000000000000000000000000000008152506001908162000091919062000416565b506012600260006101000a81548160ff021916908360ff160217905550600260009054906101000a900460ff16600a620000cc91906200068d565b600355600354620f4240620000e29190620006de565b6004556000600655348015620000f757600080fd5b506003546127106200010a9190620006de565b600560008282546200011d919062000729565b92505081905550600354612710620001369190620006de565b6004600082825462000149919062000764565b92505081905550600454600760003373ffffffffffffffffffffffffffffffffffffffff1673ffffffffffffffffffffffffffffffffffffffff168152602001908152602001600020819055506200079f565b600081519050919050565b7f4e487b7100000000000000000000000000000000000000000000000000000000600052604160045260246000fd5b7f4e487b7100000000000000000000000000000000000000000000000000000000600052602260045260246000fd5b600060028204905060018216806200021e57607f821691505b602082108103620002345762000233620001d6565b5b50919050565b60008190508160005260206000209050919050565b60006020601f8301049050919050565b600082821b905092915050565b6000600883026200029e7fffffffffffffffffffffffffffffffffffffffffffffffffffffffffffffffff826200025f565b620002aa86836200025f565b95508019841693508086168417925050509392505050565b6000819050919050565b6000819050919050565b6000620002f7620002f1620002eb84620002c2565b620002cc565b620002c2565b9050919050565b6000819050919050565b6200031383620002d6565b6200032b6200032282620002fe565b8484546200026c565b825550505050565b600090565b6200034262000333565b6200034f81848462000308565b505050565b5b8181101562000377576200036b60008262000338565b60018101905062000355565b5050565b601f821115620003c65762000390816200023a565b6200039b846200024f565b81016020851015620003ab578190505b620003c3620003ba856200024f565b83018262000354565b50505b505050565b600082821c905092915050565b6000620003eb60001984600802620003cb565b1980831691505092915050565b6000620004068383620003d8565b9150826002028217905092915050565b62000421826200019c565b67ffffffffffffffff8111156200043d576200043c620001a7565b5b62000449825462000205565b620004568282856200037b565b600060209050601f8311600181146200048e576000841562000479578287015190505b620004858582620003f8565b865550620004f5565b601f1984166200049e866200023a565b60005b82811015620004c857848901518255600182019150602085019450602081019050620004a1565b86831015620004e85784890151620004e4601f891682620003d8565b8355505b6001600288020188555050505b505050505050565b7f4e487b7100000000000000000000000000000000000000000000000000000000600052601160045260246000fd5b60008160011c9050919050565b6000808291508390505b60018511156200058b57808604811115620005635762000562620004fd565b5b6001851615620005735780820291505b808102905062000583856200052c565b945062000543565b94509492505050565b600082620005a6576001905062000679565b81620005b6576000905062000679565b8160018114620005cf5760028114620005da5762000610565b600191505062000679565b60ff841115620005ef57620005ee620004fd565b5b8360020a915084821115620006095762000608620004fd565b5b5062000679565b5060208310610133831016604e8410600b84101617156200064a5782820a905083811115620006445762000643620004fd565b5b62000679565b62000659848484600162000539565b92509050818404811115620006735762000672620004fd565b5b81810290505b9392505050565b600060ff82169050919050565b60006200069a82620002c2565b9150620006a78362000680565b9250620006d67fffffffffffffffffffffffffffffffffffffffffffffffffffffffffffffffff848462000594565b905092915050565b6000620006eb82620002c2565b9150620006f883620002c2565b92508282026200070881620002c2565b91508282048414831517620007225762000721620004fd565b5b5092915050565b60006200073682620002c2565b91506200074383620002c2565b92508282019050808211156200075e576200075d620004fd565b5b92915050565b60006200077182620002c2565b91506200077e83620002c2565b9250828203905081811115620007995762000798620004fd565b5b92915050565b61124f80620007af6000396000f3fe6080604052600436106100e85760003560e01c80636b9e02841161008a578063a9059cbb11610059578063a9059cbb146102e8578063b6b55f2514610311578063b88a802f1461032d578063fb53079414610344576100e8565b80636b9e02841461022c5780636f4a2cd01461026957806370a082311461028057806395d89b41146102bd576100e8565b8063237634c8116100c6578063237634c81461016e5780632dfdf0b5146101ab5780632e0f2625146101d6578063313ce56714610201576100e8565b806306fdde03146100ed578063101114cf1461011857806318160ddd14610143575b600080fd5b3480156100f957600080fd5b50610102610381565b60405161010f9190610c8e565b60405180910390f35b34801561012457600080fd5b5061012d61040f565b60405161013a9190610cc9565b60405180910390f35b34801561014f57600080fd5b50610158610415565b6040516101659190610cc9565b60405180910390f35b34801561017a57600080fd5b5061019560048036038101906101909190610d47565b61041b565b6040516101a29190610cc9565b60405180910390f35b3480156101b757600080fd5b506101c0610433565b6040516101cd9190610cc9565b60405180910390f35b3480156101e257600080fd5b506101eb610439565b6040516101f89190610cc9565b60405180910390f35b34801561020d57600080fd5b5061021661043f565b6040516102239190610d90565b60405180910390f35b34801561023857600080fd5b50610253600480360381019061024e9190610dd7565b610452565b6040516102609190610e13565b60405180910390f35b34801561027557600080fd5b5061027e610491565b005b34801561028c57600080fd5b506102a760048036038101906102a29190610d47565b6105fa565b6040516102b49190610cc9565b60405180910390f35b3480156102c957600080fd5b506102d2610612565b6040516102df9190610c8e565b60405180910390f35b3480156102f457600080fd5b5061030f600480360381019061030a9190610e2e565b6106a0565b005b61032b60048036038101906103269190610dd7565b6107de565b005b34801561033957600080fd5b506103426109f8565b005b34801561035057600080fd5b5061036b60048036038101906103669190610d47565b610be6565b6040516103789190610cc9565b60405180910390f35b6000805461038e90610e9d565b80601f01602080910402602001604051908101604052809291908181526020018280546103ba90610e9d565b80156104075780601f106103dc57610100808354040283529160200191610407565b820191906000526020600020905b8154815290600101906020018083116103ea57829003601f168201915b505050505081565b60055481565b60045481565b60096020528060005260406000206000915090505481565b60065481565b60035481565b600260009054906101000a900460ff1681565b600a818154811061046257600080fd5b906000526020600020016000915054906101000a900473ffffffffffffffffffffffffffffffffffffffff1681565b60005b600a805490508110156105f757600060086000600a84815481106104bb576104ba610ece565b5b9060005260206000200160009054906101000a900473ffffffffffffffffffffffffffffffffffffffff1673ffffffffffffffffffffffffffffffffffffffff1673ffffffffffffffffffffffffffffffffffffffff16815260200190815260200160002054600a60016003546105329190610f2c565b61053c9190610f9d565b6105469190610f2c565b90508060096000600a858154811061056157610560610ece565b5b9060005260206000200160009054906101000a900473ffffffffffffffffffffffffffffffffffffffff1673ffffffffffffffffffffffffffffffffffffffff1673ffffffffffffffffffffffffffffffffffffffff1681526020019081526020016000208190555080600560008282546105dc9190610fce565b925050819055505080806105ef90611002565b915050610494565b50565b60076020528060005260406000206000915090505481565b6001805461061f90610e9d565b80601f016020809104026020016040519081016040528092919081815260200182805461064b90610e9d565b80156106985780601f1061066d57610100808354040283529160200191610698565b820191906000526020600020905b81548152906001019060200180831161067b57829003601f168201915b505050505081565b60008190506000600760003373ffffffffffffffffffffffffffffffffffffffff1673ffffffffffffffffffffffffffffffffffffffff1681526020019081526020016000205490508181101561072c576040517f08c379a000000000000000000000000000000000000000000000000000000000815260040161072390611096565b60405180910390fd5b81600760003373ffffffffffffffffffffffffffffffffffffffff1673ffffffffffffffffffffffffffffffffffffffff168152602001908152602001600020600082825461077b9190610fce565b9250508190555081600760008673ffffffffffffffffffffffffffffffffffffffff1673ffffffffffffffffffffffffffffffffffffffff16815260200190815260200160002060008282546107d191906110b6565b9250508190555050505050565b6000600354600a6107ef9190610f2c565b9050600081836107ff91906110ea565b1461083f576040517f08c379a00000000000000000000000000000000000000000000000000000000081526004016108369061118d565b60405180910390fd5b81600760003373ffffffffffffffffffffffffffffffffffffffff1673ffffffffffffffffffffffffffffffffffffffff1681526020019081526020016000205410156108c1576040517f08c379a00000000000000000000000000000000000000000000000000000000081526004016108b8906111f9565b60405180910390fd5b81600760003373ffffffffffffffffffffffffffffffffffffffff1673ffffffffffffffffffffffffffffffffffffffff16815260200190815260200160002060008282546109109190610fce565b92505081905550816006600082825461092991906110b6565b92505081905550808261093c9190610f9d565b600860003373ffffffffffffffffffffffffffffffffffffffff1673ffffffffffffffffffffffffffffffffffffffff168152602001908152602001600020600082825461098a91906110b6565b92505081905550600a339080600181540180825580915050600190039060005260206000200160009091909190916101000a81548173ffffffffffffffffffffffffffffffffffffffff021916908373ffffffffffffffffffffffffffffffffffffffff1602179055505050565b600960003373ffffffffffffffffffffffffffffffffffffffff1673ffffffffffffffffffffffffffffffffffffffff16815260200190815260200160002054600760003373ffffffffffffffffffffffffffffffffffffffff1673ffffffffffffffffffffffffffffffffffffffff1681526020019081526020016000206000828254610a8691906110b6565b925050819055506000600960003373ffffffffffffffffffffffffffffffffffffffff1673ffffffffffffffffffffffffffffffffffffffff168152602001908152602001600020819055506000600354600a600860003373ffffffffffffffffffffffffffffffffffffffff1673ffffffffffffffffffffffffffffffffffffffff16815260200190815260200160002054610b239190610f2c565b610b2d9190610f2c565b90508060066000828254610b419190610fce565b9250508190555080600760003373ffffffffffffffffffffffffffffffffffffffff1673ffffffffffffffffffffffffffffffffffffffff1681526020019081526020016000206000828254610b9791906110b6565b925050819055506000600860003373ffffffffffffffffffffffffffffffffffffffff1673ffffffffffffffffffffffffffffffffffffffff1681526020019081526020016000208190555050565b60086020528060005260406000206000915090505481565b600081519050919050565b600082825260208201905092915050565b60005b83811015610c38578082015181840152602081019050610c1d565b60008484015250505050565b6000601f19601f8301169050919050565b6000610c6082610bfe565b610c6a8185610c09565b9350610c7a818560208601610c1a565b610c8381610c44565b840191505092915050565b60006020820190508181036000830152610ca88184610c55565b905092915050565b6000819050919050565b610cc381610cb0565b82525050565b6000602082019050610cde6000830184610cba565b92915050565b600080fd5b600073ffffffffffffffffffffffffffffffffffffffff82169050919050565b6000610d1482610ce9565b9050919050565b610d2481610d09565b8114610d2f57600080fd5b50565b600081359050610d4181610d1b565b92915050565b600060208284031215610d5d57610d5c610ce4565b5b6000610d6b84828501610d32565b91505092915050565b600060ff82169050919050565b610d8a81610d74565b82525050565b6000602082019050610da56000830184610d81565b92915050565b610db481610cb0565b8114610dbf57600080fd5b50565b600081359050610dd181610dab565b92915050565b600060208284031215610ded57610dec610ce4565b5b6000610dfb84828501610dc2565b91505092915050565b610e0d81610d09565b82525050565b6000602082019050610e286000830184610e04565b92915050565b60008060408385031215610e4557610e44610ce4565b5b6000610e5385828601610d32565b9250506020610e6485828601610dc2565b9150509250929050565b7f4e487b7100000000000000000000000000000000000000000000000000000000600052602260045260246000fd5b60006002820490506001821680610eb557607f821691505b602082108103610ec857610ec7610e6e565b5b50919050565b7f4e487b7100000000000000000000000000000000000000000000000000000000600052603260045260246000fd5b7f4e487b7100000000000000000000000000000000000000000000000000000000600052601160045260246000fd5b6000610f3782610cb0565b9150610f4283610cb0565b9250828202610f5081610cb0565b91508282048414831517610f6757610f66610efd565b5b5092915050565b7f4e487b7100000000000000000000000000000000000000000000000000000000600052601260045260246000fd5b6000610fa882610cb0565b9150610fb383610cb0565b925082610fc357610fc2610f6e565b5b828204905092915050565b6000610fd982610cb0565b9150610fe483610cb0565b9250828203905081811115610ffc57610ffb610efd565b5b92915050565b600061100d82610cb0565b91507fffffffffffffffffffffffffffffffffffffffffffffffffffffffffffffffff820361103f5761103e610efd565b5b600182019050919050565b7f496e73756666696369656e742062616c616e6365000000000000000000000000600082015250565b6000611080601483610c09565b915061108b8261104a565b602082019050919050565b600060208201905081810360008301526110af81611073565b9050919050565b60006110c182610cb0565b91506110cc83610cb0565b92508282019050808211156110e4576110e3610efd565b5b92915050565b60006110f582610cb0565b915061110083610cb0565b9250826111105761110f610f6e565b5b828206905092915050565b7f4465706f736974206d75737420626520696e206d756c7469706c6573206f662060008201527f3130000000000000000000000000000000000000000000000000000000000000602082015250565b6000611177602283610c09565b91506111828261111b565b604082019050919050565b600060208201905081810360008301526111a68161116a565b9050919050565b7f4e6f7420656e6f75676820746f6b656e2070726f766964656400000000000000600082015250565b60006111e3601983610c09565b91506111ee826111ad565b602082019050919050565b60006020820190508181036000830152611212816111d6565b905091905056fea264697066735822122009af38bfaa39ce31c6f206532134767ab278374d15a590061aeb9d0ed1d2249064736f6c63430008110033",
  "linkReferences": {},
  "deployedLinkReferences": {}
}